:060000000A128A11122809
:10000800FE00030E83120313B5000408B6000A08A5
:10001800B7007F08B8000A128A1104290A128A1147
:1000280015288313D030FD000330FE003030FF0068
:10003800A03084000A128A11B6230A128A11C30159
:10004800C401C50183010A128A11602B83120313AC
:10005800AB002130A600EF2825302C0603193528DF
:10006800362840282B0884002C0883138000013090
:10007800A3002308AB07EF28A7010130A007FF3032
:10008800200784000A128A1172210A128A11AC0010
:10009800A300A4012408003A03195328EF282308D1
:1000A800003A0319FF28643A03195E280D3A031928
:1000B8005E28EF282608840083130008A900840A14
:1000C8000008AA000230A3002308A607AA1F6D286B
:1000D8006E2877280330A3002308A704A909AA09D2
:1000E800A90A0319AA0AAC01AC0A2C08A300230721
:1000F800013E84000A128A1172210A128A11A40090
:100108000A128A1172210A128A11A50025082A02E8
:10011800031D902824082902031893289428952859
:100128009F280130A3002308AC0705302C06031DC7
:100138009E289F287928270803390319A428A52869
:10014800AE282B0884002D30831380000130A300D3
:100158002308AB072C08A800E6280A30F80000306E
:10016800F9002808A3002307013E84000A128A1117
:1001780072210A128A11F0000A128A1172210A12D7
:100188008A11F1002A08F3002908F2000A128A11DC
:1001980001220A128A117108FB007008FA000A127B
:1001A8008A1187220A128A117808303E83120313B3
:1001B800AC002B0884002C08831380000130A300B6
:1001C8002308AB07FF30A3002308A807280A031D4C
:1001D800EE28EF28B1280130A007FF30200784005F
:1001E8000A128A1172210A128A11AC002C08031D06
:1001F800FE28FF2830282B0884008313800108007C
:100208008C1E072908294B291A08C4003B290A1201
:100218008A11FA220A128A11A030F0000030F10087
:100228000A128A1145220A128A115B290A128A11B6
:10023800C5230A128A11A030F0000030F1000A121A
:100248008A1145220A128A115B292B30F00080306E
:10025800F1000A128A1145220A128A110D308312FE
:1002680003131A06031D39293A2932291F2944087C
:10027800B300B4013408003A031943292929330883
:10028800313A03190B29033A03191A2929290C1F92
:100298004E294F295B291F0CB300330C0F39003A44
:1002A800031D572958295A291E08C3000C13831205
:1002B80003133808FF0037088A0036088400350E13
:1002C8008300FE0E7E0E0900FF1B722983137F1820
:1002D80083170008840A0319FF0A080001308A00FE
:1002E8000408840A82070034013400340A340034D4
:1002F80064340034E83403341034273445346C341F
:100308002034763461346C346F347234203464347D
:1003180065346C34203470346F34743465346E341E
:10032800633469346F346D346534743472346F34C3
:100338002034653473343A340D3400344E346F3419
:100348002034653478346934733474346534203433
:1003580065347334613420346F34703463346934F1
:100368006F346E3420340D340034253464340D3445
:10037800003483120313BE01BF01E4290C1EC529F2
:10038800C629C2293E083907BC003A08BB00031831
:10039800BB0ABE1FD029BB03831203133B08BD0051
:1003A8003D08FF003C0884000A128A1168210A12DD
:1003B8008A1199000130BE070318BF0A0030BF0731
:1003C8003E083907BC003A08BB000318BB0ABE1F29
:1003D800EE29BB03831203133B08BD003D08FF0051
:1003E8003C0884000A128A1168210A128A11003A0C
:1003F800031DFF29002AC2290800F501F60170082B
:1004080071040319082A092A402AF701F70A172A4A
:1004180001300310F00DF10DFF3E031D0D2A0130D0
:10042800F4007408F707F11F1A2A1B2A0C2A013056
:100438000310F50DF60DFF3E031D1C2A710873020B
:10044800031D282A70087202031C2B2A2C2A332A1F
:100458007008F2027108031CF303F30275140130EB
:100468000310F10CF00CFF3E031D342A0130F70293
:10047800031D3F2A402A1B2A7608F1007508F00060
:100488000800F501F6016A2A0C1E4B2A4C2A482A54
:1004980075087007F3007108F2000318F20AF51FD7
:1004A800562AF2037208F400740883120313FF003B
:1004B800730884000A128A1168210A128A119900A5
:1004C8000130F5070318F60A0030F60775087007BB
:1004D800F3007108F2000318F20AF51F742AF203F8
:1004E8007208F400740883120313FF007308840071
:1004F8000A128A1168210A128A11003A031D852AF4
:10050800862A482A08007808790403198C2A8D2A33
:10051800BC2AFD01FD0A9B2A01300310F80DF90DD4
:10052800FF3E031D912A0130FC007C08FD07F91FDE
:100538009E2A9F2A902A79087B02031DA52A7808FB
:100548007A02031CA82AA92AAF2A7808FA0279088D
:10055800031CFB03FB0201300310F90CF80CFF3EEF
:10056800031DB02A0130FD02031DBB2ABC2A9F2AA5
:100578007B08F9007A08F800080001308316031791
:1005880088008901013083160313850086018801DC
:100598008901831203138501860188018901753059
:1005A800831603138F008B170B170C178312031373
:1005B8000C13C3309F05831603131F129F12831257
:1005C80003131F083F3980389F00831603139F13B6
:1005D800831203131F14033083120313BA009730D6
:1005E800B900B90BF52ABA0BF52A080083120313D0
:1005F8001F141A3083120313AE00F730AD00AD0B91
:10060800032BAE0B032B082B831203139F144230CA
:10061800A0004308AD00AE012D08A1002E08A200DD
:100628002F300A128A112A200A128A110B30F00080
:100638008030F1000A128A1145220A128A112F30DD
:10064800F0000030F1000A128A1145220A128A11BC
:10065800831203131F1008004D3465346E3475344B
:100668003A3420340D342034313429344C34653450
:1006780065347234203470346F34743465346E34B5
:10068800633469346F346D346534743472346F3460
:1006980020340D3420343234293465346E347634C1
:1006A80069346134723420344134733463346934C6
:1006B800693420340D3400340A128A11C1220A1216
:1006C8008A110A128A118D230A128A11A030831204
:1006D8000313B9000030BA000A128A11BD210A12A8
:1006E8008A11831203138C1E7A2B7B2B752B0630F1
:1006F80083120313C2001330C100AD30C000C00B19
:10070800832BC10B832BC20B832B752B0A128A11E7
:1007180012280C308316031399009A0118118316B6
:10072800031787118312031318168316031318125D
:10073800831203139817831603139816831203134F
:100748001813831603139816831203130C128316B7
:1007580003138C16831203138C1208007E088A0078
:100768007F0882000A128A11B2230A128A118000B5
:10077800840A04087D0603190034FF0A0319FE0AD7
:10078800B62B831203138C1ECA2BCB2BC52B1A082E
:10079800F000700899000D30990070088600080074
:08400000FF3FFF3FFF3FFF3FC0
:04400E00D420FF3F7C
:00000001FF
